:020000040001F9
:10C00000386100208DC4010095C4010097C401006F
:10C0100099C401009BC401009DC401000000000000
:10C020000000000000000000000000009FC40100AC
:10C03000A1C4010000000000A3C40100A5C40100C8
:10C04000A7C40100A7C4010019CB0100A7C40100C7
:10C05000A7C40100A7C4010039C5010095C70100AC
:10C06000A7C40100A7C40100A7C40100A7C4010020
:10C07000A7C40100A7C40100A7C40100A7C4010010
:10C08000A7C4010061C70100A7C40100A7C4010043
:10C090006DC80100A7C4010075C80100A7C4010054
:10C0A000A7C40100A7C4010001CB0100A7C401007F
:10C0B000A7C40100A7C401000000000000000000A8
:10C0C000A7C40100A7C40100A7C40100A7C40100C0
:10C0D000A7C40100A7C40100A7C40100000000001C
:10C0E0000000000000000000000000000000000050
:10C0F0000000000000000000000000000000000040
:10C10000000000000000000000000000000000002F
:10C11000000000000000000000000000000000001F
:10C40000DFF80CD000F086F800480047DDF30100AB
:10C4100038610020401E00BF00BF00BF00BF00BF4A
:10C4200000BF00BF00BF00BF00BF00BF00BF00BF14
:10C4300000BF00BF00BF00BF00BF00BF00BF00BF04
:10C4400000BF00BF00BF00BF00BF00BF00BF00BFF4
:10C4500000BF00BF00BF00BF00BF00BF00BF00BFE4
:10C4600000BF00BF00BF00BF00BF00BF00BF00BFD4
:10C4700000BF00BF00BF00BF00BF00BF00BF00BFC4
:10C4800000BF00BF00BFC5D170470000064880470D
:10C4900006480047FEE7FEE7FEE7FEE7FEE7FEE7A9
:10C4A000FEE7FEE7FEE7FEE7B5C8010001C40100B4
:10C4B00040EA01039B0703D009E008C9121F08C026
:10C4C000042AFAD203E011F8013B00F8013B521EA6
:10C4D000F9D27047D2B201E000F8012B491EFBD21D
:10C4E00070470022F6E710B513460A46044619467F
:10C4F000FFF7F0FF204610BD10B5002200E0521CEF
:10C50000835C8C5CA34201D1002BF8D1D8B2E1B29C
:10C51000401A10BD064C074D06E0E06840F00103EC
:10C5200094E8070098471034AC42F6D3FFF76CFF4D
:10C53000A41D0200C41D02002DE9F04F87B00027A2
:10C54000BA464FF4807006900125002412E0069848
:10C5500003F016FE40B100BF60480068284018B1E3
:10C56000069803F0FFFD2F436D000698001D80B272
:10C570000690641C082CEAD34FF4BE7003F000FE52
:10C5800048B14FF4BE7003F0EDFD47F0004700BF27
:10C59000534800688246F8B2F8B1012500241AE039
:10C5A00005EA0700A8B100BF4E4850F82400C0F3C8
:10C5B0000420064600BF4B4850F82400C0F3014059
:10C5C0008046204602F0E8F8814641463046C8479A
:10C5D00000BF6D00641C082CE2D307F00040002867
:10C5E00079D04FF0000B00200590401E049000BF52
:10C5F0004FF0000B002457E03B48005D0390039888
:10C6000020F0C00638480057401C00284BD00120BD
:10C61000B04004990840002845D003984FEA90198B
:10C62000304602F001F9804602F0B6F80290029816
:10C6300010B9B9F1030F35D1012000FA06F5B9F1AF
:10C64000030F02D105982843059000BF274850F8F2
:10C650002600C0F3014800BF05EA0A0010B1B8F196
:10C66000020F05D005EA0A00D8B9B8F1030F18D1B6
:10C67000B9F1030F0FD1B8F1020F01D1032000E08F
:10C68000022001903046019903F03CFD0BF10100BE
:10C6900000F0FF0B00BF029818B149463046029ADD
:10C6A000904700BF00BF641C042CA5D3BBF1000F52
:10C6B0000DD000BF0A4909680846504503D14FF024
:10C6C000000B03E007E082460599049100BFBBF12F
:10C6D000000F8DD100BF07B0BDE8F08F04630040AC
:10C6E00010050050106500407C3F002000070050FE
:10C6F00000F01F0201219140024A430942F8231031
:10C700007047000080E200E000F01F02012191402C
:10C710004209920002F1E022C2F8001170470000C5
:10C7200000F01F0201219140024A430942F8231000
:10C730007047000000E200E010B5002807DA4A0761
:10C74000140E054A00F00F031B1FD45403E04A07E0
:10C75000130E024A135410BD18ED00E000E400E08F
:10C7600010B500200949086000210948C0F84411AB
:10C77000C0F84811C0F84C1100200549C1F800016B
:10C7800002493C39086004F01BFE10BD4011014015
:10C7900000100140FEB54FF4827003F04BFD38B33A
:10C7A0004FF4827003F050FD00208DF800002D48FA
:10C7B0004068019000BF2C48006880B2ADF80800C6
:10C7C0002848C06820B90020264981F827000AE0DF
:10C7D0002448C068234948600846808A08810020B0
:10C7E000C86003F043FD1F4801686846884700BFE2
:10C7F0004FF48A7003F01EFD40B14FF48A7003F0CD
:10C8000023FD0020174981F827002AE01548056913
:10C8100024E0B5FA85F64FF00040F0408543B000C3
:10C8200000F58C74204603F005FDB8B1204603F0F6
:10C830000BFD01208DF80000A4F58C70C0F3C7003B
:10C840008DF80400A4F58C70012121EA90018DF887
:10C850000510044801686846884700BF002DD8D1FC
:10C8600000BFFEBD7C4000203476004010B504F0CF
:10C87000BFFC10BD70B50A48006868B10848006880
:10C880008047044600BF254625B100BF284600F07A
:10C8900055FB00BF00BF01E002F0B0FB70BD00001F
:10C8A0008821002001480249086070470090D003A9
:10C8B000A021002010B502F0BFF910B182488349D1
:10C8C000486702F0D1F928B181480068C0F34230CE
:10C8D0008049086002F0F2F928B17F48006820F032
:10C8E00080707D49086002F001FA48B100207B4960
:10C8F00008604FF08041C1F810017649091F0860B7
:10C9000002F01EFA18B1032072496431086002F087
:10C910002FFA68B10520724908600120704978310A
:10C92000086000206E49083108603F20091F086038
:10C9300002F036FA002855D06A4800686A49086053
:10C940006848001D0068091D0860664808300068D6
:10C95000091D086063480C300068091D08606148C3
:10C9600010300068091D08605E4814300068091D19
:10C9700008605C48183000685B49203108605948FD
:10C980001C300068091D0860564820300068091DE9
:10C990000860544824300068091D08605148283058
:10C9A0000068091D08604F482C300068091D0860A8
:10C9B0004C48303000684C494031086049483430B8
:10C9C0000068091D0860474838300068091D086084
:10C9D00044483C300068091D086042484030006807
:10C9E000091D086002F0FEF830B1394814300068C3
:10C9F00000F04F003D49086037487438006840F443
:10CA0000700035497439086000BF00BF00BFBFF334
:10CA10004F8F00BF00BF00BF00BF00BF00BFBFF30C
:10CA20006F8F00BF00BF00BF3148006800F00040BA
:10CA300030B92F48001D006800F00040002840D0A9
:10CA400001202C49086000BF2B4800680028FBD05B
:10CA500015202749086000BF274800680028FBD040
:10CA600015212348001D016000BF234800680028ED
:10CA7000FBD000201F49086000BF1F480068002845
:10CA8000FBD000BF00BF00BF00BF00BFBFF34F8F90
:10CA900000BF00BF00BF1048F038006800F4E0603D
:10CAA00016490843001D0C49F039086000BF00BF5B
:10CAB00000BFBFF34F8F00BF00BF00BF00BF00BF6C
:10CAC000FDE7FFF7EFFE10BD0DF0ADBA00C0074067
:10CAD000440200103C050040FCED00E00C01004069
:10CAE000105600400404001020C50040E40E004031
:10CAF0000012001004E5014000E401400000FA05C6
:10CB000010B506220249034802F0CAFA10BD00001F
:10CB1000A840002000A0014010B50448007F10B1DB
:10CB200004F00CFF01E004F059FE10BD843F00202A
:10CB300002E008C8121F08C1002AFAD170477047E6
:10CB4000002001E001C1121F002AFBD1704700BF85
:10CB5000EFF31081084672B670472DE9FC41044698
:10CB6000884616460025378800203080606B68B103
:10CB7000616B08783B463246414604F07BF9054636
:10CB800000BF15B12846BDE8FC8100BF206B58B13D
:10CB90003B4632464146206B04F063FC054600BF2D
:10CBA0000DB12846EFE700BF94F82E0060B194F86D
:10CBB0002E003B463246414602F0F8FA054600BFD9
:10CBC0000DB12846DFE700BF94F82D0050B13A467A
:10CBD0003146404600F06FFF054600BF0DB12846C4
:10CBE000D1E700BFA07850B13A463146404600F048
:10CBF0006DFB054600BF0DB12846C4E700BFE078D5
:10CC000060B1E17848B23B463246414602F034F921
:10CC1000054600BF0DB12846B5E700BF606868B1A2
:10CC2000616891F900003B463246414604F0E4FC5D
:10CC3000054600BF0DB12846A5E700BF20890028A2
:10CC40000EDD43460622022104F10800CDE900670B
:10CC500004F09EFF054600BF0DB1284693E700BFD4
:10CC6000208A00280EDD43460722032104F110002C
:10CC7000CDE9006704F08CFF054600BF0DB12846E2
:10CC800081E700BF208B00280EDD434615221421CA
:10CC900004F11800CDE9006704F07AFF054600BFF3
:10CCA0000DB128466FE700BF206A58B13B463246B7
:10CCB0004146206A01F047FE054600BF0DB12846F7
:10CCC00061E700BF606A58B13B4632464146606A40
:10CCD00002F0CCFB054600BF0DB1284653E700BF6C
:10CCE00094F82C0000280BDD3B4632464146204696
:10CCF00004F038F9054600BF0DB1284643E700BFF0
:10CD0000207858B13B4632464146204602F0E9FBC6
:10CD1000054600BF0DB1284635E700BF284632E77B
:10CD20000146C87800F0040008B9072070470020C9
:10CD3000FCE710B501220221002001F04DF9044664
:10CD400000BF1CB1072C01D0204610BD00BF072238
:10CD50000221012001F040F9044600BF1CB1072C5C
:10CD600001D02046F1E700BF0A220021084601F069
:10CD700033F9044600BF1CB1072C01D02046E4E77C
:10CD800000BF0020E1E7000030B5A7B0382119A8A6
:10CD9000FFF7A7FB02208DF8640000208DF86600E5
:10CDA00005208DF8670038210BA8FFF79AFB0120BA
:10CDB000ADF83C0010491091242102A8FFF791FB27
:10CDC00001208DF8140040200690B4200790002028
:10CDD0000A4B02AA0BA9009019A800F053FB0446C5
:10CDE00000BF254625B100BF284600F0A7F800BFC8
:10CDF00000BF27B030BD000082200020ED030200FC
:10CE0000014600BF064A10684FF400228243044BDB
:10CE10001B1D1A6000F400221B1D1A6000BF704722
:10CE20000405005010B5002407E00749096811F80F
:10CE30003400012102F0ECFB641C044800788442B9
:10CE4000F3D3002010BD0000502100205421002009
:10CE50002DE9F84306460C461746052F02D2072057
:10CE6000BDE8F88302F0D4FC38B902F0A7FC05460F
:10CE700000BF0DB12846F3E700BF1648066016480C
:10CE800004701648076000201549086015490860BD
:10CE900015E006EBC40814480068009098F80200FA
:10CEA0008DF8010098F80000104A694602F00CFC69
:10CEB000054600BF0DB12846D2E700BF00BF201EC7
:10CEC000A4F10101CCB2E4D1094A0021094800F0E3
:10CED00075F8C5E75021002054210020582100207A
:10CEE0005C21002060210020A01D02007DEF0100D8
:10CEF000F5EA01009C1D020000BF00BF00BF00BF9B
:10CF000000BFBFF34F8F00BF00BF00BF09480068DC
:10CF100000F4E06008490843001D0649086000BFAE
:10CF200000BF00BFBFF34F8F00BF00BF00BF00BFF7
:10CF300000BFFDE70CED00E00000FA053EB5044639
:10CF4000002000900190029002946A46002144F271
:10CF50000100FFF7D1FF3EBD70B504460D462046E7
:10CF600001F073FF28B12946204601F05DFF002043
:10CF700070BD0520FCE7034609B90E20704712B1C9
:10CF8000501E104008B10920F8E71960501E988023
:10CF900000209860D86000BFF0E770B504460D46E9
:10CFA000204601F052FFA188884205D82946204634
:10CFB00001F059FF002070BD0420FCE710B50346C6
:10CFC0000C4600BF0B48006808B9082010BD00BF20
:10CFD0000AB90720FAE70BB90720F7E71868007CC1
:10CFE00008B10820F2E71968002008744C744A61FF
:10CFF00000BFEBE7682100202DE9F04180460E4696
:10D0000014461F46204600F0030109B9012100E043
:10D01000002111B90720BDE8F08124B900201D4985
:10D0200008600720F7E703F0A1FB1B480760032017
:10D030001A49087017480460183400250DE0154996
:10D04000096801EBC50000210170417086704460E1
:10D0500006EB460104EBC1046D1C032DEFDB002041
:10D060000F4908600F4908700F4908701420FFF736
:10D070003FFB06211420FFF75FFB1420FFF744FB62
:10D08000404603F049FB03F041FB084908600020DB
:10D09000C1E70000682100208021002064210020D9
:10D0A0006C2100207C2100207D21002070210020A7
:10D0B0002DE9F84304460D461746264600BF1148A1
:10D0C000006810B90820BDE8F88300BF0CB908203B
:10D0D000F9E7052D01D20720F5E7706908B90820A6
:10D0E000F1E7707C012801D1284600E0002080464D
:10D0F00004F008FD814643462A463146009704F075
:10D1000011F9E0E76821002070B50446254600BF0C
:10D110000948006808B9082070BD00BF0CB16869F3
:10D1200008B90820F8E70020287404F0EBFC064654
:10D13000294604F025F9EFE76821002070B5044680
:10D140000A4801F07DFE09498988884208D10121F9
:10D15000074802F0BBFD05460DB1052070BD00BFBC
:10D1600021460248FFF7F8FEF8E700000C3F0020D8
:10D17000192100202DE9F04188B004460D461746DC
:10D180009846294807601DB9072008B0BDE8F0811E
:10D19000A88882B225482968FFF7EDFE064600BF41
:10D1A0000EB13046F1E700BFA88982B22048A968D5
:10D1B000FFF7E1FE064600BF0EB13046E5E700BFCF
:10D1C00020221C496846FFF773F9A0680690207971
:10D1D00008B1012000E000208DF814008DF81C80BB
:10D1E000607908B10E2000E000208DF81500E0788D
:10D1F0000290A078039020780190607800900E490A
:10D20000684602F0F1FC064600BF0EB13046BCE7AE
:10D2100000BF9DF81D0008B902F0B0FD01210748CC
:10D2200002F054FDB1E70000142100200C3F002063
:10D230001C3F0020501D0200C516020019210020CD
:10D2400070B5044621460A48FFF7A7FE054665B9B2
:10D2500002F0FAFE48B907490548FFF77DFE20B9FC
:10D260000121044802F04EFE0546284670BD00002C
:10D270001C3F00201821002010B50446204603F072
:10D28000C5FD10BD70B5044625460E488068B0B196
:10D29000ADB9FFF75CFC06460A4800680A49086019
:10D2A000084840684FF0E021C1F80401002005491A
:10D2B00088601EB900BF62B600BF00BF00BF00BFDC
:10D2C00070BD00002C41002000E100E0F8B50546EB
:10D2D0000C4617462088001DB84201D90C20F8BD25
:10D2E000684679DF064600BF0EB13046F7E700BF5B
:10D2F0000320218868542088401C20801920218820
:10D3000068542088401C208020884119BDF8000006
:10D3100004F0AAFB2188084420800020DFE70000F9
:10D3200010B50446206802F00FFF206802F0DEFE10
:10D330000021606802F0B6FE2548007F18B3A0699E
:10D340002449086000BF607D217D40EA0102224B34
:10D35000C3F86C2500BF1846D4E9001202F0FAFFAA
:10D36000207D012832D10021A06802F09BFEE068F8
:10D3700002F0EAFEE06802F0B9FE1748D4E90221A3
:10D3800002F0D4FF22E0A0691249086000BF607D6E
:10D39000217D40EA0102104BC3F86C2500BF1846FE
:10D3A000D4E9001202F0ADFF207D01280ED100214A
:10D3B000A06802F077FEE06802F0C6FEE06802F0C6
:10D3C00095FE0548D4E9022102F084FF10BD00005B
:10D3D000843F0020242500400020004001460348EF
:10D3E000084008B9012070470020FCE700C0F0FFAA
:10D3F0002DE9F04192B080460D461F20119010900B
:10D40000B8F1000F17D04046FFF78AFC044600BF72
:10D410001CB1204612B0BDE8F08100BF11AA08A9D6
:10D420004046FFF79AFB044600BF0CB12046F1E7E7
:10D4300000BF08AE02E0002600201190ADB12846E2
:10D4400003F086FE044600BF0CB12046E2E700BFB1
:10D4500010AA69462846FFF780FB044600BF0CB1BE
:10D460002046D7E700BF6F4602E00027002010905B
:10D47000BDF84000C3B2BDF84400C1B23A463046E0
:10D4800072DFC7E72DE9F04704460F4615461E46F2
:10D49000DDF8208000BF14B90E20BDE8F08700BF82
:10D4A00000BF0DB90E20F8E700BF00204649087004
:10D4B000464806604648C0F8008024222946454870
:10D4C000FEF7F6FF00F018F9434844490860444865
:10D4D000886038214348FFF704F8207841490870F4
:10D4E000A0788870E078C870607848700846D4E901
:10D4F0000412C0E90412D4E90212C0E90212D4E90C
:10D500000612C0E90612606AD8B137483549486248
:10D5100036498160606A00883249496A0880606AD9
:10D5200080883049496A8880002005E0616A8968FE
:10D53000095C2E4A1154401C2A49496A8988814253
:10D54000F4D8A06A20B32A492A4881602549886214
:10D5500027492448806A8160A06A80882149896AB5
:10D560008880A06A00881F49896A0880002005E039
:10D57000A16A8968095C1E4A1154401C1949896ACC
:10D5800089888142F4D894F82C00164981F82C003F
:10D59000206A58B1184813490862206A4088096A0D
:10D5A0004880206A00880F49096A0880606820B1B5
:10D5B00012480C4948606068486039460948FFF7DE
:10D5C00017FF8146484668E7F0200020E820002049
:10D5D000EC200020043E0020383E0020283E0020A1
:10D5E000583E0020CC3D0020783E0020843E0020A4
:10D5F000B03E0020A43E0020F4200020F8200020AF
:10D6000070B504462088102804D0112809D01B28A2
:10D6100063D11BE0A07D012802D1A0883049088099
:10D620005CE000202F490870A0882D4909888842B5
:10D630000BD1012000F0A4F8054635B12A48006856
:10D6400018B1284628490968884747E0207A002809
:10D6500042D126480078012806D0022811D003289C
:10D660001CD0042836D129E0022000F089F80546B4
:10D6700035B11D48006818B128461B49096888471C
:10D6800029E0032000F07CF8054635B11648006813
:10D6900018B128461449096888471CE0032014493A
:10D6A0000870042000F06CF8054635B10E4800689B
:10D6B00018B128460C49096888470CE000200C493D
:10D6C00008700C48006820B10846007809490968CC
:10D6D000884700E000BF00BF00E000BF00BF70BD92
:10D6E000FA200020F1200020EC200020F020002073
:10D6F000E4200020E8200020024800210160818011
:10D7000081717047DD20002010B51848007801288D
:10D7100029D11748007830BB1648007830B174DF43
:10D72000044600BF0CB1204610BD00BF01201049C7
:10D73000087006201049C87000210F48FFF758FEF6
:10D74000044600BF0CB12046EEE700BF0948007850
:10D7500000F016F8044634B10848006818B12046B5
:10D760000649096888470020DEE70000043E0020E3
:10D77000F1200020F0200020CC3D0020EC200020F3
:10D7800030B587B005469548057001F090FB28B18B
:10D79000012093490870002007B030BDFFF7ACFFAF
:10D7A0009048407818B18D48007801280DD08D48F8
:10D7B000807818B189480078012806D08948807897
:10D7C00088B18648007802280DD18748006838B1B2
:10D7D000012086490870082083490968884702E0CB
:10D7E0000020824908707D480078012809D17D48D1
:10D7F000407818B17E4802F023FF10B90220774923
:10D80000087076480078022809D17648807818B1E7
:10D81000774802F015FF10B903207049087071486D
:10D82000007B30B96D480078032802D104206B4991
:10D8300008706C48007E40B968480078042804D11C
:10D840000020664908706B49087067480068A8B1F5
:10D8500062480078032803D06048007804280DD17E
:10D860006048007850B16448007838B901206349B5
:10D87000087007205C490968884702E000205F497A
:10D880000870182101A8FEF72CFE00208DF8040076
:10D8900002908DF80C00049050480078012806D0C2
:10D8A000022813D0032825D0042876D150E0504810
:10D8B000401E029001208DF804000020ADF81600F3
:10D8C000ADF8140001204B49087071E04848401E33
:10D8D000029001208DF804004248008980B2ADF822
:10D8E00016004048808880B2ADF8140002204149FB
:10D8F00008705DE03B48808A80B2ADF81600394878
:10D90000008A80B2ADF814003D4804F0D6F9D8B1D1
:10D9100034480078C0B138480078A8B902208DF8A2
:10D920000C003748049004203649C870002135485F
:10D93000FFF75EFD044600BF0CB120462CE700BF98
:10D9400005202C49087002E003202A4908702FE0C6
:10D950002448808B80B2ADF814002248008C80B23D
:10D96000ADF81600264804F0A8F9E0B11D4800788B
:10D97000C8B121480078B0B902208DF80C002048C9
:10D98000049004201F49C87000211E48FFF730FD95
:10D99000044600BF14B12046FEE608E000BF0620A2
:10D9A0001449087002E004201249087000E000BF2A
:10D9B00000BF0A48007838B101A873DF044600BFF1
:10D9C0000CB12046E8E600BF0748006820B10948CE
:10D9D00000780549096888470020DDE6F02000202E
:10D9E000DC200020043E0020E8200020F32000205E
:10D9F000DE200020E4200020F1200020F220002082
:10DA0000283E0020CC3D002070B505461C2229464A
:10DA10001248FEF74DFD002011490870286850B1EA
:10DA2000104829680A680260496841607ADF044644
:10DA30003CB1204670BD0B487BDF04460CB120464C
:10DA4000F8E74FF6FF700849088000200749087082
:10DA5000074A00210748FFF7B1FAEBE7D03E002064
:10DA600010210020FC20002006210020042100209D
:10DA7000751A02003C1D020010B5044620881028CB
:10DA800006D0112808D012280ED0502810D107E057
:10DA9000204602F03DFD0CE0204602F059FD08E072
:10DAA000204602F079FD04E0204602F025FD00E06A
:10DAB00000BF00BF10BD2DE9FC4105460C461746CE
:10DAC00020880930B84202D90C20BDE8FC816846A4
:10DAD00071DF064600BF0EB13046F6E700BF0820F2
:10DAE000218868542088401C20801B20218868548D
:10DAF0002088401C208020882844DDF80110016027
:10DB0000BDF8051081802088801D20809DF80000D0
:10DB100018B900202188685402E001202188685447
:10DB20002088401C20800020CFE7000070B504460C
:10DB30002046FFF7A1FF2146194800F087F820464C
:10DB400002F06EFC2046FFF75BFD204600F040F936
:10DB50002088012821D100251248007800B970BD25
:10DB600011480068401C10490860084600680F49C9
:10DB70000978884210D100200B4908600C480068E1
:10DB8000401C0B490860094800780A46126800FBEF
:10DB900002F1084803F08AF900BF00BFDFE7000088
:10DBA000A4210020A42000209C20002098200020F8
:10DBB000A0200020CC21002070B586B004460E467F
:10DBC000214B0FCB01AD0FC500BF14B90E2006B01D
:10DBD00070BD00BF00BF0EB90E20F8E700BF4FF6C2
:10DBE000FF70A0823068A0610020A075214601A8C6
:10DBF00063DF054600BF0DB12846E8E700BF207887
:10DC00008DF816000120ADF81400A21C05A9A0DFB4
:10DC1000054600BF0DB12846D9E700BF3146204672
:10DC200002F0F8FD054600BF0DB12846CFE700BF62
:10DC30003146204603F054FC054600BF0DB128468E
:10DC4000C5E700BF0020C2E7401D020070B50546D1
:10DC50000C4605B104B970BD2088102804D01128E5
:10DC600007D050280FD109E02146284602F06CFC6D
:10DC70000AE02146284602F08BFC05E021462846B2
:10DC800002F0B6FC00E000BF00BF00BFE3E737B51D
:10DC900084B004460D4600BF14B90E2007B030BD55
:10DCA00000BFA08A4FF6FF71884201D0A07D08B95D
:10DCB0000820F3E7BDF81800142801DD0720EDE780
:10DCC00000200090019002900390A089ADF8000020
:10DCD000039506A8029001208DF80200A08A6946EB
:10DCE000A6DFDBE770B586B027480068059000BF67
:10DCF00000234822254905A803F0F8F9054600BF8E
:10DD00002E4626B100BF3046FFF718F900BF00BF0E
:10DD100000BF6A460121002003F0C8F9044600BF95
:10DD2000254625B100BF2846FFF708F900BF00BF10
:10DD300000BF174E304602F0F3FF044600BF2546F1
:10DD400025B100BF2846FFF7F9F800BF00BF00BFAC
:10DD5000684603F09DF9044600BF254625B100BF83
:10DD60002846FFF7EBF800BF00BF0A4803F084F92C
:10DD7000044600BF254625B100BF2846FFF7DEF860
:10DD800000BF00BF06B070BDD41C02003C390020AB
:10DD9000E81F00202DDB010070B505460C4600266B
:10DDA0000948056044B1204603F0D9F9064600BF92
:10DDB0000EB1304670BD00BF0448006810B9FEF7D0
:10DDC000B8FF06463046F5E7D4200020D8200020D2
:10DDD00070B505462888102802D011282CD115E0EE
:10DDE0001748006860B900F05BFE044600BF34B11C
:10DDF0001448006818B1204612490968884700BFD6
:10DE00000F480068401C0E49086016E00C48006886
:10DE1000401E0B4908600846006860B9FEF789FF9C
:10DE2000044600BF34B10748006818B120460549D0
:10DE30000968884700BF00E000BF00BF70BD000058
:10DE4000D8200020D420002010B5032000F038FC9A
:10DE5000044600BF1CB1062C01D0204610BD00BFF7
:10DE60000020FBE72DE9F04105460F464FF0000882
:10DE7000002400E0641C042C04D22A4850F824003A
:10DE8000A842F7D1042C41D227B3012F02D0022F90
:10DE90003BD133E004EB4400234911F8008004EB4C
:10DEA00044000844407868B12048006800EB8000D6
:10DEB00041001F4A1F480068FFF7FAF806460EB9EE
:10DEC0001B48057004EB44001749084480781A4940
:10DED00008551AE017480068FFF716F91648005D64
:10DEE00004EB4401104A11448978884205D104EBBF
:10DEF00044001146084490F8028006E004EB440018
:10DF00000949084490F8018000BF00BFB8F1000F34
:10DF100006D00A48006818B1404608490968884791
:10DF2000BDE8F0810C1D0200A03D0020BC200020B7
:10DF3000CC200020081D0200CD200020C820002099
:10DF400010B50246042A0ED2094B1B68D843094B70
:10DF500013F822400123A34003400BB1012300E04A
:10DF600000230B7001E000200870002010BD0000AD
:10DF7000100500500C1D020070B50546042D06D09A
:10DF8000072D15D00A2D22D103F050F820E01321DF
:10DF90001048008876DF0446082C08D000BF2646CB
:10DFA00026B100BF3046FEF7C9FF00BF00BF0FE03B
:10DFB000FFF7AAFB0446082C08D000BF264626B16E
:10DFC00000BF3046FEF7BAFF00BF00BF00E000BF51
:10DFD00000BF70BD8020002030B503460020042B18
:10DFE00023D2012A07D1012903D103F10D04E4B2A0
:10DFF00000E00024224679B1012902D0022911D182
:10E0000004E003EB43040A4D2A550DE003EB4304FF
:10E01000074D2C44627007E003EB4304044D2C448D
:10E02000A27001E0072000BF00E0072030BD000023
:10E03000A03D002070B5044600250548007800F09A
:10E04000010018B1204600F06DF80546284670BD65
:10E05000C02000202DE9F04105460E4690460024E0
:10E0600025480660254805602548C0F8008005F071
:10E070000200F8B1002706E0012211463846FFF7FA
:10E08000ABFF04467F1C042F01D2002CF4D02CB926
:10E09000720804211B48FEF7DBFE044614B9FEF7A4
:10E0A000C1FE04462CB9184A00211848FEF786FF25
:10E0B000044600BF05F0010068B100BF4FF4F01046
:10E0C000134908600020091D086000BF4FF4F010DC
:10E0D0000F49103108602CB90E4A00210E48FEF796
:10E0E0006DFF04462CB90D4A01210D48FEF766FF6D
:10E0F00004462046BDE8F081BC200020C02000205E
:10E10000C82000201C1D020011E70100081D0200AC
:10E110000805005019F20100001D020001CE0100A7
:10E12000041D02002DE9F041044600260025182CAC
:10E130007DD2DFE804F00C1D1E68B4EEEDECEBEAD6
:10E14000E9E8E7E6E5E4E3E2E1E0DFDEDDDC00BFAD
:10E15000FD4801684FF4F010884300F4F010FB49CB
:10E1600008600020091D086000BFF948047098E2AB
:10E1700000BF00BFF44801684FF4E010884300F48A
:10E18000F010F24908600020091D086000BFEF4848
:10E19000001F006880F4F01000F4003088B100BF68
:10E1A0004FF40030091F08600020091D086000BFFF
:10E1B000022C02D14FF4E16001E04FF47A60054691
:10E1C00010E000BF4FF40030E049091D0860002056
:10E1D000091F086000BF022C01D1C82001E04FF4E4
:10E1E000C8700546DA4804706420B5FBF0F0D949E0
:10E1F000096800FB01F700223946D7480068FEF79E
:10E2000057FF06464DE200BFCF4801684FF4E010CB
:10E21000884300F4F010CD4908600020091D086013
:10E2200000BFCA48001F006880F4F01000E037E229
:10E2300000F4003088B100BF4FF40030091F0860BF
:10E240000020091D086000BF032C02D14FF4487064
:10E2500001E04FF47A60054610E000BF4FF4003053
:10E26000BA49091D08600020091F086000BF032C7F
:10E2700001D1C82001E04FF4C8700546B4480470CD
:10E280006420B5FBF0F0B349096800FB01F70022F8
:10E290003946B1480068FEF70BFF064601E200BFB1
:10E2A000A94801684FF4E010884300F4F010A74932
:10E2B00008600020091D086000BFA448001F006816
:10E2C00080F4F01000F4003020B300BF4FF40030B1
:10E2D000091F08600020091D086000BF042C02D13E
:10E2E0004FF47A6001E04FF47A60054624E0CBE118
:10E2F000C9E1B3E19DE187E179E13FE13DE13BE146
:10E3000039E137E12AE105E1EDE0D3E0BBE0A1E04E
:10E310006CE022E000BF4FF400308C49091D08601A
:10E320000020091F086000BF042C02D14FF4C87000
:10E3300001E04FF4C8700546854804706420B5FBC1
:10E34000F0F08449096800FB01F700223946824851
:10E350000068FEF7ADFE0646A3E100BF7A480168FB
:10E360004FF4E010884300F4F01078490860002072
:10E37000091D086000BF7548001F006880F4F01098
:10E3800000F4003080B100BF4FF40030091F086076
:10E390000020091D086000BF052C01D1C82001E044
:10E3A0004FF47A60054610E000BF4FF40030674933
:10E3B000091D08600020091F086000BF052C01D15D
:10E3C000C82001E04FF4C87005466148047064201D
:10E3D000B5FBF0F05F49096800FB01F70022394600
:10E3E0005D480068FEF764FE06465AE100BF5648E5
:10E3F00001684FF4E010884300F4F01053490860BE
:10E400000020091D086000BF5048001F006880F40C
:10E41000F01000F4003040B100BF4FF40030091F8D
:10E4200008600020091D086009E000BF4FF40030BB
:10E430004649091D08600020091F086000BF4448C4
:10E44000047044480022016843480068FEF730FE2B
:10E45000064626E100BF3C4801684FF4E0108843BF
:10E4600000F4F010394908600020091D086000BF61
:10E4700000BF4FF4003008600020091F086000BF93
:10E48000334804700DE100BF3049091F08684FF49C
:10E49000802181432D4A116000F48021121D1160FA
:10E4A00000BF2C48002201682B480068FEF700FEE0
:10E4B0000646F6E000BF2549091F08684FF4802191
:10E4C0008143224A116000F48021121D116000BFB7
:10E4D0002048006800EB800100221F480068FEF71A
:10E4E000E7FD0646DDE000BF1849091F08684FF444
:10E4F00080218143154A116000F48021121D1160B2
:10E5000000BF14480022016813480068FEF7D0FDE0
:10E510000646C6E000BF0D49091F08684FF4802178
:10E5200081430A4A116000F48021121D116000BF6E
:10E530000848006800EB8001002207480068FEF7E9
:10E54000B7FD0646ADE00000C420002008050050DD
:10E55000B8200020BC200020001D020000BF4FF4A6
:10E56000F010524908600020091F086000BF5048A1
:10E57000047096E000BF00BF00BF00BF4D480068B8
:10E58000FEF7C2FD0646C4F111050DB306BB4FF4FC
:10E59000002049490860012D0FD9C8206843642133
:10E5A000B0FBF1F04549096800FB01F7002239464C
:10E5B00040480068FEF77CFD064600BF3E48006804
:10E5C00000F4F010394908600020091F08600DE0D0
:10E5D00000BF3948006800F4F0103449091F086092
:10E5E0000020091D086000BF3349086059E000BFE2
:10E5F0004FF4F0102D49091F08600020091D086024
:10E6000000BF2B4804704CE000BF4FF4E0102749D6
:10E61000091F08600020091D086000BF00BF4FF4FB
:10E62000003008600020091F086000BF2048047007
:10E6300037E000BF4FF4D0101C49091F08600020CC
:10E64000091D086000BF00BF4FF480200860002053
:10E65000091F086000BF1648047022E000BF4FF495
:10E66000C0101249091F08600020091D086000BF82
:10E6700000BF4FF4C02008600020091F086000BFE1
:10E680000B4804700DE000BF00BF4FF4F0100749C5
:10E6900008600020091F086000BF0548047000E002
:10E6A00000BF00BF3046BDE8F08100000C050050FF
:10E6B000B8200020041D0200C4200020BC2000203F
:10E6C00030B5024600201AE00F4C54F82040A40058
:10E6D00004F1A044D4F800170124844014400CB184
:10E6E000032400E00024234621F4403141EA0341A1
:10E6F000064C054D55F8205044F82510401C0428C0
:10E70000E2D3002030BD00000C1D020000070050C5
:10E7100010B5044620780221FFF7A4FB10BD0000CD
:10E72000F8B50546134A40F6CD410320FFF792FCA9
:10E73000044600BF264626B100BF3046FEF7FEFB6A
:10E7400000BF00BF69460020FFF726FB044600BF5C
:10E75000264626B100BF3046FEF7F0FB00BF00BFE3
:10E760009DF80000022801D1012000E0002028705F
:10E77000F8BD000079DF01004FF0FF31054A42F893
:10E780002010082804DBFF23A0F108015032535465
:10E79000704700002C3F00200146024850F821003D
:10E7A000704700002C3F00202DE9F04F03460C4637
:10E7B0004FF0FF390AB1002000E0082084460AB17A
:10E7C000082000E00C208046614624E0154850F8FF
:10E7D0002100401CF0B91D460846274616464FFA50
:10E7E00080FBDFF840A00AF1300A0AF805B0DFF834
:10E7F00034A04AF820704EB94FFA85FBA0F1080A00
:10E80000DFF820E00EF1500E0EF80AB000BF4FFA0C
:10E8100081F902E0491C4145D8D300BF4846BDE814
:10E82000F08F00002C3F0020014601484056704701
:10E830005C3F002010B5024600200AE0002105E000
:10E84000002300EB400414446354491C0329F7DB04
:10E85000401CB0F5FA6FF1DB10BD00002DE9F04768
:10E8600082461F480068002836D01D4800680568A9
:10E8700001F04CFF07461B4804682146384602F069
:10E8800094FCC61C1848007808B901F051FFAE424C
:10E8900001D2284600E03046044424F07F4420465C
:10E8A00001F02EFF01F032FF80463946404602F06B
:10E8B0007CFC00F103093946204602F076FC8145D4
:10E8C00009D901F023FF814601F01AFF2F20FDF73F
:10E8D000A1FD02F0C1FD01E001F048FFBDE8F087B5
:10E8E0006C2100207021002084210020014608882E
:10E8F000062808DB0888B0F5486F06DD08884FF663
:10E90000FF72904201D0072070474888062808DB34
:10E910004888B0F5486F06DD48884FF6FF72904290
:10E9200001D00720F0E708884FF6FF72904208D028
:10E930004888904205D008884A88904201DD072027
:10E94000E2E70020E0E72DE9F04106460D461446D7
:10E9500098462088801D404502D90C20BDE8F081F2
:10E960003046FFF7C3FF074600BF0FB13846F5E753
:10E9700000BF0520218868542088401C2080122078
:10E98000218868542088401C2080228851193088B2
:10E9900003F06AF821880844208022885119708881
:10E9A00003F062F82188084420800020D6E710B5E3
:10E9B000044600BF2046FEF7C1FA00BF10BD0000AC
:10E9C00030B587B01C216846FDF78BFD0020009014
:10E9D0004FF4203001904FF47020029003208DF806
:10E9E0000C000020ADF80E008DF8100009480590CD
:10E9F000094806906846FFF707F8044600BF254619
:10EA000025B100BF2846FEF799FA00BF00BF07B046
:10EA100030BD0000CD040200AFE9010038B51B484D
:10EA200000F0A4FB20BB1A48007848B1194840699F
:10EA3000E8B100200090174841696846884716E011
:10EA40001548007810B91348456801E011488568F9
:10EA50000022294611480068FEF72AFB044634B11B
:10EA60000C48806918B10B4881692046884709E045
:10EA70000848406930B10120009006484169684665
:10EA8000884700BF00200249087038BD08210020D7
:10EA900010210020D03E0020042100203C1D020057
:10EAA00010B5012200210846FFF796FA044600BF80
:10EAB0001CB1072C01D0204610BD00BF0722022147
:10EAC0000120FFF789FA044600BF1CB1072C01D0D2
:10EAD0002046F1E700BF042202210020FFF77CFA64
:10EAE000044600BF1CB1072C01D02046E4E700BF5C
:10EAF0000020E1E72DE9F0478146002532E01C487F
:10EB0000006800EBC5042178012000FA01F61948DD
:10EB10000068304020B317480068B04315490860CA
:10EB2000207800F03DFE07462178012088401249F8
:10EB300009680840217807FA01F188420FD160780E
:10EB4000012800D100E00020784080F001086068D2
:10EB500020B108F0FF0120786268904700BF00BF35
:10EB6000681CC5B2054800788542C8DBBDE8F0875F
:10EB700050210020602100205C2100205421002031
:10EB8000014614480078144A127890421DD011486A
:10EB90000078401C0F4A107010460078022801D1FE
:10EBA000002010700D480B4A127850F822000860BF
:10EBB0000B4A086812681044094A10601046006841
:10EBC00020F07F401060012070470020086000BFE7
:10EBD000FAE700007C2100207D2100207421002024
:10EBE0007021002013480078062820D11148001D0C
:10EBF000007800F00F00D0B90E480830007800F01F
:10EC0000F000302801D1012070470A480830007810
:10EC100000F0F000402801D10120F5E70548083058
:10EC2000007800F0F000502801D10120ECE700202E
:10EC3000EAE70000E00F00F00A48007806280ED14D
:10EC40000848001D007800F00F0040B90548083062
:10EC5000007800F0F000302801D10120704700203A
:10EC6000FCE70000E00F00F013480078062820D1F0
:10EC70001148001D007800F00F00D0B90E48083090
:10EC8000007800F0F000302801D1012070470A48D8
:10EC90000830007800F0F000402801D10120F5E7AD
:10ECA00005480830007800F0F000502801D101201C
:10ECB000ECE70020EAE70000E00F00F00A480078E7
:10ECC00006280ED10848001D007800F00F0040B95A
:10ECD00005480830007800F0F000302801D101200C
:10ECE00070470020FCE70000E00F00F013480078B8
:10ECF000062820D11148001D007800F00F00D0B97F
:10ED00000E480830007800F0F000302801D10120D2
:10ED100070470A480830007800F0F000402801D120
:10ED20000120F5E705480830007800F0F000502891
:10ED300001D10120ECE70020EAE70000E00F00F03D
:10ED40000A48007806280ED10848001D007800F017
:10ED50000F0040B905480830007800F0F000302876
:10ED600001D1012070470020FCE70000E00F00F017
:10ED70000A48007806280ED10848001D007800F0E7
:10ED80000F0040B905480830007800F0F000302846
:10ED900001D1012070470020FCE70000E00F00F0E7
:10EDA0000A48007806280ED10848001D007800F0B7
:10EDB0000F0040B905480830007800F0F0005028F6
:10EDC00001D1012070470020FCE70000E00F00F0B7
:10EDD000F0B5034600241FE0124E306806689E42DC
:10EDE00003D90668F61A06601AE006689B1B0668D7
:10EDF0003444002606600B4E35680A4FC6693E60F3
:10EE0000C66846B10E1926F07F464660C668866021
:10EE10001668C661156000BF024800680028DBD193
:10EE200000BFF0BD6C21002070B504460D462A4697
:10EE30000021204600F00EF8A068401CA06070BDC4
:10EE400001468A68C868801A704701468A68C8689F
:10EE5000801A704710B583680B4484882340046887
:10EE6000E35C137010BDC26883881A40036899542C
:10EE7000C268521CC260704730B504461088C01C7E
:10EE8000984201D90C2030BD0220158848551088C1
:10EE9000401C10800120158848551088401C1080A7
:10EEA00015884C551088401C10800020EBE738B5C1
:10EEB00000200090684601F00DFC0446082C02D0AA
:10EEC0000CB1012038BD082C06D1684600F00AF8C4
:10EED00004460CB10020F5E7009808B10120F1E7E5
:10EEE0000020EFE7014609B9032070470248406D52
:10EEF00008600020F9E70000D44000203EB500BFC4
:10EF00009DF8000020F00F00401C00909DF80000CC
:10EF100020F0F0001030009000BF092214A16846D4
:10EF20007CDF044600BF254625B100BF2846FEF71A
:10EF300005F800BF00BF0020019002901020ADF83E
:10EF400004003C20ADF806000020ADF808004FF4A6
:10EF5000C870ADF80A0001A87ADF044600BF254654
:10EF600025B100BF2846FDF7E9FF00BF00BF3EBD49
:10EF7000496E6E6F76614C61620000002DE9F041D0
:10EF800005460F46012000FA05F418480068FEF710
:10EF9000BBF806460EB1BDE8F08115480068204078
:10EFA000E0B9284600F0FCFB28B112480068204375
:10EFB0001049086004E00F480068A0430D4908604C
:10EFC0000B48006820430A49086000220A4801688B
:10EFD00006480068FEF76CF8064604E0044800683E
:10EFE000A0430349086000BFD5E700009C1D020054
:10EFF000602100205C21002058210020F8B5234822
:10F00000007800B9F8BD2248006808B9012000E086
:10F01000002005461F48006808B9012000E00020D4
:10F02000064600BF8DB9684652DF0446052C01D163
:10F03000012509E024B100BF2046FDF77FFF03E072
:10F04000134900980968884700BFBEB91248008874
:10F05000009069461148006861DF0446052C01D123
:10F0600001260AE024B100BF2046FDF767FF04E057
:10F070000A48006807490968884700BF0DB106B112
:10F0800000E0CFE700BF00BFBCE700008C210020FC
:10F090009C21002098210020942100209021002014
:10F0A0002DE9F04704460E469046002722E03846F8
:10F0B00001F0E2F80546384601F0E5F881462046C1
:10F0C000294642580AB1012200E0002282B1484696
:10F0D000D4F80413014009B1012100E0002139B145
:10F0E0002946204601F0D4F82846D6E90021904769
:10F0F000781CC7B24745DADBBDE8F08710B5034698
:10F100000B48006850B958181044032490FBF4F0E1
:10F11000232801DA012010BD0020FCE70448006824
:10F12000044C2468A04201D10120F4E70020F2E75A
:10F1300088200020A820002010B50446204600F0BA
:10F14000E9FB04490968084008B1012010BD00200E
:10F15000FCE700004821002070B50446204600F07E
:10F16000D9FB0546FEF73AF970BD00000146488814
:10F17000064A1288904206DB4888044A5288904228
:10F1800001DC012070470020FCE70000FC2000208B
:10F1900010B50446204600F0BDFB0349084008B105
:10F1A000012010BD0020FCE7FF3F0F0030B50446F2
:10F1B0001088C01C984201D90C2030BD022015884F
:10F1C00048551088401C10801C2015884855108810
:10F1D000401C1080012C06D0022C08D0032C0AD031
:10F1E000042C10D10BE00020158848550DE00120BB
:10F1F0001588485509E002201588485505E0032088
:10F200001588485501E00720D7E700BF1088401C4B
:10F2100010800020D1E7000010B5044604480078B3
:10F2200000F0010018B103480078FEF77BFF10BD25
:10F23000C0200020B82000202DE9F0412148D0F85E
:10F240000080214806782FE02048006800EBC604C3
:10F25000257825E005EB4501606800EBC107681CD7
:10F26000C5B2A078A84200D100253878022802D083
:10F27000032812D103E0786802F01EF80EE007E0E0
:10F2800010490868002101740E4AC169116000BF6D
:10F290000C4800680028F3D100E000BF00BF00BFA9
:10F2A0006078A842D6D100BF301EA6F10101CEB2CF
:10F2B000CAD104480068404502D00120BDE8F08171
:10F2C0000020FBE76C210020642100206821002041
:10F2D0002DE9F04706463B48D0F800903A480778B9
:10F2E00061E03A48006800EBC70555E016B13446C6
:10F2F000E66923E02A7802EB4202696801EBC2006A
:10F300002978491C29702978AA78914201D10021D5
:10F31000297044680178012901D1217C01B13BE0C9
:10F3200081686160C168A1600169E1604169A161B2
:10F330002749097809B10021616000BF254960684B
:10F340000968401A20F07F402349884208D22149A9
:10F350006068096801F029FFA1680844206010E096
:10F360001C486168006801F020FF8046A0684045A5
:10F3700004D9A068A0EB0800206001E00020206014
:10F3800000BF00206060A060012020740020E061C8
:10F39000204601F05DFF00BF002EA7D128786978D4
:10F3A0008842A3D100BF381EA7F10101CFB298D186
:10F3B00004480068484502D00120BDE8F0870020DD
:10F3C000FBE700006C210020642100206821002060
:10F3D0008521002070210020FFFF7F0008B50C2050
:10F3E00000F06EFE0B2000F06BFE0B2000F0A4FE80
:10F3F0000C2000F0A1FE00BF00231B4A0521184687
:10F40000FDF7FAFD054600BF2E4626B100BF304687
:10F41000FDF794FD00BF00BF00BF02F0B3F96846DE
:10F42000FFF77EF9FEF75EFCFFF768FD01F0E6FDF1
:10F43000FDF7AAFCFFF7C4FA01F0FCFB01F062FB48
:10F4400001F0E6FB0320FEF79BF9044600BF2546CA
:10F4500025B100BF2846FDF771FD00BF00BF00BF0A
:10F4600001F02AF9FCE70000983B00202DE9F0416B
:10F4700005460E4614469846A888871C2088801C9E
:10F480003844404502D90C20BDE8F081FE2F01D957
:10F490000C20F9E7781C218870542088401C2080BB
:10F4A000FF20218870542088401C208022889119D8
:10F4B000288802F0D9FA218808442080A8880028EA
:10F4C0000DDDA86808B90720DEE7AA882388981907
:10F4D000A968FCF7EDFF2088A98808442080002057
:10F4E000D2E72DE9F84F05460F461446984628788E
:10F4F000012804D1687810B90720BDE8F88F20886A
:10F50000801C404508D82878012807D12088801C15
:10F5100069780844404501D90C20EEE72088A8EB23
:10F520000000801E86B200962188891CC819694691
:10F530007DDF814600BFB9F1000F01D04846DCE70E
:10F5400000BF2878022806D1BDF80000B04202DCD6
:10F550004FF0090A0BE04FF0080A2878012805D17E
:10F560006878B04202DC6878009000E00096BDF850
:10F570000000FE2801D90C20BFE7BDF80000401CA8
:10F58000218878542088401C2080208807F800A01B
:10F590002088401C20802088BDF80010084420806E
:10F5A0000020AAE770B50B4601461A46002907DA83
:10F5B0005407260E104C01F00F052D1F665503E071
:10F5C0005407250E0D4C655400BF00BF00F01F020C
:10F5D000012191400A4A440942F8241000BF00BFAB
:10F5E00000F01F02012191404209920002F1E02245
:10F5F000C2F8001100BF70BD18ED00E000E400E0AB
:10F6000080E200E00146C1F3073250B270470000CB
:10F610002DE9F04705460E46284601F02BF8F8B1D3
:10F620002846FFF701F9083824490F5CBC11032C68
:10F630000BD100BF224800680121A940084008B151
:10F64000032000E00220804605E0012C01D10220C9
:10F6500000E0032080464146284600F053FD2AE0A2
:10F66000284601F013F830B32846FFF7DDF80446CA
:10F67000A00000F5807087B22046124951F8201092
:10F6800041F001020F4941F8202000BF384600F048
:10F6900069FD7EB12846FFF7C7F88146FFF77CF881
:10F6A0008046B8F1000F04D0012101FA04F000F007
:10F6B00073FD00BF00BFBDE8F08700007C3F002065
:10F6C00010050050106500402DE9FC4704460E4629
:10F6D00017464FF00008204600F0BEFF10B14FF073
:10F6E000080851E0F27839462046FFF75DF80546F4
:10F6F000681C002845D0B07860B100BFA10001F1BE
:10F70000A041D1F8001721F00200214941F824005E
:10F7100000BF0CE096F80190002000904B46024696
:10F7200001460190204600F099FC00BF00BFF07830
:10F73000D0B13078174951F82510174A1140154AB1
:10F7400042F82510114651F825104FF4F85202EAFC
:10F7500004224FF4403303EA00431A4311430D4A95
:10F7600042F8251000BF0EE0A5F108000B49085C27
:10F77000317840EA811042B2A5F1080007490A54E5
:10F7800001E04FF0040800BF4046BDE8FC870000E0
:10F790000007005010650040FFE0FCFF7C3F0020A8
:10F7A000014600BF04480068C84000F0010008B1ED
:10F7B000012070470020FCE71005005010B51348E9
:10F7C00090F8540008B1082010BD002404E0204641
:10F7D00000F06CFF601CC4B2202CF8DB002404E0B5
:10F7E0002046FEF7C9FF601CC4B20C2CF8DB0621D2
:10F7F0000846FFF7D7FE4FF0004000F0CDFC012097
:10F80000024981F854000020DEE700002C3F002070
:10F81000034890F8540008B1012070470020FCE72D
:10F820002C3F0020F8B5064600250427164D00247D
:10F8300025E0002000906846FDF71EFD204600F000
:10F8400069F8284078B12046FFF776FC58B900BF28
:10F85000204600F05FF80D49096808430B4908602D
:10F8600000BF347000279DF80000FDF70BFD07B9BD
:10F8700007E0204600F04EF88543601CC4B2002D1E
:10F88000D7D100BF3846F8BDFF3F0F004821002008
:10F8900070B506460C46154600BF0CB90E2070BD6B
:10F8A00000BF00BF0DB90E20F9E700BF3046FFF7DB
:10F8B0006FFC08B90720F2E73046FFF73DFC08B9B6
:10F8C0000820ECE700BF044840F8364000EBC600D3
:10F8D000456000BF0020E2E710F5014010B5044686
:10F8E0002046FFF739FC08B9072010BD2046FFF776
:10F8F0004FFC28B12046FFF71FFC08B90820F4E7A9
:10F9000000BF0120A0400249086000BF0020ECE7D2
:10F9100004F50140014601208840704704490978F8
:10F9200021B90121024A1170002000E085207047B2
:10F930004421002070B504460D46022000F08AFCE8
:10F940001E4890F8270001281ED11C48C06820B12D
:10F95000022000F085FC112070BD1848C46085822B
:10F9600000BF4FF4807000F065FC0028F9D04FF420
:10F97000807000F069FC2946204600F013FC02204C
:10F9800000F06EFC0020E7E7022000F069FC012097
:10F990000A4981F827000846446005810020C860B4
:10F9A0002946204600F0FEFB4FF4807000F04CFC2E
:10F9B000002000F05BFC0020CEE700007C4000202F
:10F9C00070B505460C46134890F82700012801D170
:10F9D000112070BD0F48163010F8150030B90D48D1
:10F9E00090F82800401C0B4981F82800A1790948AB
:10F9F000163000F81510E17900EB45004170214602
:10FA0000284600F0D7FBE279A179284600F006FCF1
:10FA10000020DEE77C40002070B504460D461B4800
:10FA200090F8260008B1082070BD0DB90720FBE74B
:10FA300004B9174C1548056020781649086000BFC6
:10FA40006078091D086000BF0120104981F8260078
:10FA5000002081F8270081F8280008616FF000403D
:10FA600000F0F8FB4FF4827000F0EEFBA178072065
:10FA7000FFF798FD022000F0F3FB00BF01200549CD
:10FA8000F039086000BF0020CEE700007C40002075
:10FA9000901D0200F07500402DE9F04105460C462E
:10FAA00016461F46204600F0EEFB804627B1414631
:10FAB000286800F0F3FB03E04146286800F0EBFB08
:10FAC000286800F5A86141F8246000BFBDE8F08116
:10FAD00010B504460021206800F0E9FB02202179DE
:10FAE00001EB4101024A02EB8101087210BD0000E6
:10FAF000A84000202DE9F04105460E4617461C4659
:10FB0000DDF818804FF48072B2400123B34042EA1E
:10FB10000301286800F0C5FB2868D0F800122143D3
:10FB2000C0F8001200BF43463A4631462846FFF768
:10FB3000B3FFBDE8F08100002DE9F04704460D4613
:10FB40009046207900EB4000254901EB8006307A91
:10FB500010B10820BDE8F087B8F1000F01D10720EF
:10FB6000F8E71DB920791F4901EBC005C6F80080F0
:10FB700068687060002709E0384600F07DFB814628
:10FB80004946206800F084FB781CC7B26079B8420F
:10FB9000F2DC2068FFF736FD8146E978FFF702FDC9
:10FBA00069782068D0F8042561F30102C0F80425C3
:10FBB00000BFA9782068D0F8082561F30102C0F8D9
:10FBC000082500BF29782068D0F8102561F30302CA
:10FBD000C0F8102500BF012030720020BAE70000F5
:10FBE000A8400020941D020070B504460D4631481F
:10FBF000C07E08B1082070BD04B92F4C607F2D492C
:10FC000008772046FDF78CFB2A4845602949206982
:10FC100008600846406880B3267F0846007FC0B170
:10FC20004FF48871254800F07EFB4FF49071234813
:10FC300000F079FB4FF49271204800F074FB4FF410
:10FC4000A2711E4800F06FFB1D491C4800F077FBB5
:10FC50000DE04FF48E71194800F039FB4FF4A2719A
:10FC6000164800F034FB1749144800F03BFB3146BE
:10FC70000220FFF797FC00BF00BF00BF0D48007FC8
:10FC800028B100BF08201049086000BF05E000BF90
:10FC900004200D49086000BF00BF00BF00200549D7
:10FCA000C875087688750120C8760020887600BF60
:10FCB000A1E70000843F0020701D020000200040EA
:10FCC00010030200800002000025004070B50446C9
:10FCD0000D462848007F30B1200C0004B0F1005FD1
:10FCE00001D0102070BD00262248406868B121482C
:10FCF000007F28B14FF404711F4800F01DFB04E0A1
:10FD00004FF401711C4800F0EAFA1A48C07DB0B106
:10FD10001848007E90B11748406868B11548007FC8
:10FD200028B14FF40471144800F009FB04E04FF4CB
:10FD30000171114800F0D6FA1120D3E701263EB92F
:10FD40000C48C575C46000200A494876087602E070
:10FD50000848046105760748007F28B132462946E5
:10FD6000204600F075F8BDE732462946204600F0EF
:10FD700015F8B7E7843F00200020004010B5064882
:10FD8000007F38B90448807E20B900F0F1FD0120E1
:10FD90000149887610BD0000843F00202DE9F0471E
:10FDA0008046894616462848807E10B90EB900F074
:10FDB000DFFD2548406800283FD14FF4A271234859
:10FDC00000F085FA00BF00BF4FF492711F4800F0A9
:10FDD00077FA05464FF484711C4800F071FA074623
:10FDE0004FF4A271194800F06BFA044617B90CB928
:10FDF000002DE9D005B904B107E000F0E3FC12489A
:10FE0000C07D1149497E8842DDDC00BF00200E49DB
:10FE1000C87515B10320BDE8F0870CB10F20FAE7D3
:10FE20000948807E20B10021084800F067FA03E00D
:10FE30000421064800F062FA04E04FF4017103481F
:10FE400000F050FA0020E6E7843F00200020004048
:10FE50002DE9F04704460D4690464FF48871264838
:10FE600000F061FA4FF4A271234800F05CFA2248D6
:10FE7000C0F834454FF4A7610D5000BFB8F1000F32
:10FE800003D1002100F063FA08E020201B49096833
:10FE90000143194AC2F8001200BF00BF1848406869
:10FEA00018BB00BF4FF48871134800F035FA814643
:10FEB0004FF4A271104800F02FFA07464FF49271E8
:10FEC0000D4800F029FA0646B9F1000F02D10FB92A
:10FED000002EE7D000200A49C87516B10320BDE8FE
:10FEE000F0870FB10F20FAE704E04FF404710248E5
:10FEF00000F025FA0020F2E7002000400022004038
:10FF0000843F002070B504460D460F48007F30B195
:10FF1000200C0004B0F1005F01D0102070BD00F093
:10FF200093F808B11120F9E707488575846000202F
:10FF3000054988820846007F10B100F04DF8EDE7D2
:10FF400000F004F8EAE70000843F002010B5002428
:10FF50004FF48E711E4800F0BAF908211C4800F0D9
:10FF6000CDF901F0A1FA1B48406878BB12E000BF50
:10FF70004FF48E71164800F0A3F920B91548808A15
:10FF8000B0F5807FF4D11348808AB0F5807F01D02E
:10FF900001F08AFA0F48808A0E49897D8842E6DBA3
:10FFA0000C48808AB0F5807F01D10F240BE000BFA0
:10FFB0004FF48E71064800F083F90028F8D00C2128
:10FFC000034800F09BF9002002498875204610BDC7
:10FFD00000200040843F002070B500264FF490714F
:10FFE000174800F0A0F94FF4AC71154800F09BF9E8
:10FFF0001348144B99689A7DC0F844154FF4A963CF
:020000040002F8
:100000001A5000BF082100F0A2F90E484068A8B9B4
:1000100000BF4FF490710A4800F07EF905464FF496
:10002000AC71074800F078F904460DB9002CF0D007
:1000300004B10F2600200349887500BF304670BD0B
:1000400000200040843F00200348807D08B101204B
:1000500070470020FCE70000843F0020F0B5DDE998
:10006000054541EA420646EA830646EA042646EA90
:100070000547024E46F82070F0BD00000007005012
:10008000F0B5DDE9054541EA420646EA830646EA5F
:10009000042646EA0547024E46F82070F0BD0000EF
:1000A000000700507CB505460C4600200090234612
:1000B0000246014601902846FFF7E2FF7CBD0000A2
:1000C000F0B501210A4600252C462B4641EA42069E
:1000D00046EA850646EA042646EA0347024E46F803
:1000E000207000BFF0BD0000000700501CB50446A2
:1000F0000020009003460122114601902046FFF7A0
:10010000BFFF1CBD074A52F8202022F44033054AA5
:1001100042F8203052F8202042EA0143014A42F8D6
:10012000203070470007005001218140014A1160D2
:10013000704700000C05005001218140014A116008
:10014000704700000805005001218140014A1160FC
:1001500070470000080500500146014808447047F8
:100160000060004038B504462046FFF7F5FF002147
:1001700001602046FFF7F0FF0068009000BF38BD27
:1001800010B504462046FFF7E7FF0068012800D1BC
:1001900010BD0020FCE70000014908607047000026
:1001A00004630040024A1060121D11607047000095
:1001B0002C76004010B50A7802F003024B78302408
:1001C00004EA03131A438B784FF4E06404EA032330
:1001D0001A43CB784FF4805404EA03331A430B7963
:1001E0004FF4E02404EA03431A434B794FF480149C
:1001F00004EA03531343084A02EB001293608A791E
:10020000CB79054C04EB00146360034C04EB001441
:10021000226000BF10BD000010750040044B03EBCE
:1002200000135A60024B03EB001319607047000083
:100230001075004001460348085808B10120704776
:100240000020FCE7007000400021014A8150704707
:1002500000700040014908607047000008730040CA
:100260000149086070470000047300400121014A01
:10027000815070470070004001464FF4A07000EBC1
:10028000810080B2704701464FF48030884070474B
:10029000002242507047C0F808137047C0F804139A
:1002A0007047D0F800228A43C0F80022704701222C
:1002B000425070470146D1F88004C1F8800470476D
:1002C0000246505808B1012070470020FCE7002288
:1002D00042507047C0F80815C0F810257047C0F8A4
:1002E00008137047C0F8041370470246D2F804039D
:1002F000084008B1012070470020FCE7012242506D
:100300007047C0F80C15C0F8142570470146D1F8A5
:100310008004C1F8800470470246505808B101209B
:1003200070470020FCE7002242507047C0F80815D3
:100330004FF4A2631A507047C0F808137047C0F812
:1003400004137047014640F23C5040587047012268
:100350004250704740F20C53195040F214531A5057
:1003600070470000F0B585B007460D4616460024DC
:1003700006E000BF285DFCF763FF0028FAD1641C8B
:10038000B442F6D300BF0A20FCF75AFF0028FAD186
:1003900014216846FCF7A5F8324629466846FCF762
:1003A00087F80DA16846FCF7A7F870B901200B4942
:1003B0000870801E0A49086000200A4908600C2065
:1003C000FFF7BAFE0B20FFF7AFFE07A16846FCF768
:1003D00093F805B0F0BD000041000000AD20002002
:1003E000B0200020882000204200000070B50546A3
:1003F0007DB1032D10D10220FDF71CFE044600BF85
:10040000264626B100BF3046FCF798FD00BF00BF6E
:1004100003E000F00BFE00E000BF00BF70BD000075
:1004200070B505462888102806D0112815D0132845
:1004300025D0522845D133E00720FDF7FBFD0446C7
:1004400000BF264626B100BF3046FCF777FD00BF4F
:1004500000BFA8881C49088034E00020FDF7EAFDB1
:10046000044600BF264626B100BF3046FCF766FDB5
:1004700000BF00BF4FF6FF701349088022E0002341
:100480001A468521104800887FDF044600BF2646B3
:1004900026B100BF3046FCF751FD00BF00BF11E0A0
:1004A00000231A46194608480088A9DF044600BF01
:1004B000264626B100BF3046FCF740FD00BF00BF16
:1004C00000E000BF00BF70BD8020002070B5054671
:1004D000287868B93B210748008876DF044600BFCA
:1004E000264626B100BF3046FCF728FD00BF00BFFE
:1004F00070BD00008020002010B504460349A268AA
:100500000A60E0684860FEF789FA10BD0821002003
:1005100010B50446A088084908800849A2690A6005
:10052000E06948600020064908700648C08908B99B
:10053000FEF774FA10BD00000621002008210020FB
:1005400004210020D03E00208A888282704700006B
:1005500070B505464FF6FF7009490880002009492B
:10056000087009480068FCF7CFFD044634B107481D
:10057000806918B1054881692046884770BD000030
:1005800006210020042100203C1D0200D03E002056
:100590004FF6FF728282704770B50546AC1D208809
:1005A0001149C98988421DD1608902281AD100BF2A
:1005B00000BF217B627B41EA0221084600F0010175
:1005C00011B1FEF72BFA0DE008480068FCF79CFD1E
:1005D000064636B10448806918B10348816930463F
:1005E000884700BF70BD0000D03E00203C1D0200C7
:1005F00070B504460E46B51D2988208A814212D165
:10060000688902280FD100BF00BF297B6A7B41EABD
:100610000221084600F0010111B10120A0750EE091
:100620000020A0750BE02888A188884207D1A06926
:1006300028B16A8905F10C012046A369984770BD6D
:100640000246002104E0505C08B101207047491CBB
:100650000629F8D30020F9E7014605484056012253
:1006600002EBE07008B1012070470020FCE70000B9
:100670005C3F0020014604484056082801DB012069
:1006800070470020FCE700005C3F00200146064860
:100690004056002805DB04484056082801DA0120AE
:1006A00070470020FCE700005C3F0020FF2201496A
:1006B0000A5470475C3F002070B548DF044600BF15
:1006C000254625B100BF2846FCF738FC00BF00BF17
:1006D00070BD0000014600BF0748007800F004002C
:1006E00008B90820704700BF09B90E20FAE703488F
:1006F000407808600020F5E740210020A43F00205A
:100700000149086070470000401501400148006839
:10071000704700000415014010B50446034804600A
:1007200006211120FCF708F810BD00000815014053
:1007300010B54FF480300A4908600A49C1F8040333
:100740001120FBF7D5FF1120FBF7DEFF0120054943
:1007500008602F20FBF75EFE01200349087010BDE2
:1007600044130140001001408421002010B51120E5
:10077000012181400E4A430942F8231000BF4FF483
:1007800080300C4908600C49C1F80803012048601A
:100790002F20FBF73FFE0120074988600020074912
:1007A00008602F20FBF736FE00200549087010BDB9
:1007B00080E100E04813014000100140702100205A
:1007C0008421002010B51048C07D40B94FF48471D9
:1007D0000E48FFF77CFD00BF0D48006810BD4FF4C8
:1007E00084710A48FFF773FD00BF09480068C0B272
:1007F0000549C968044A527E88540348407E401C1B
:100800000149487600BFE9E7843F0020002000400E
:100810001825004030B58FB004460D4600200790E3
:1008200000BF9DF81C0020F00F00401C8DF81C003C
:100830009DF81C0020F0F00010308DF81C0000BF67
:1008400000BF9DF81D0020F00F00401C8DF81D001A
:100850009DF81D0020F0F00010308DF81D0000BF45
:100860009DF81E0020F00600801C8DF81E001C2143
:1008700008A8FBF736FE9DF8200020F0100010308D
:100880008DF82000002009900B900C9007A80D9087
:1008900000200E9020788DF806000320ADF80400AB
:1008A0000020009000BF9DF8000020F00F00401CC9
:1008B0008DF800009DF8000020F0F00010308DF859
:1008C000000000BF00BF9DF8010020F00F00401C99
:1008D0008DF801009DF8010020F0F00010308DF837
:1008E000010000BF9DF8020020F00600801C8DF87A
:1008F00002009DF8020020F008008DF802009DF82B
:10090000020020F010008DF802009DF8020020F097
:100910000100401C8DF80200142102A8FBF7E1FD44
:1009200001A80290CDF80CD00120ADF810000020F5
:10093000ADF812001420ADF81400608804F10C0327
:1009400002AA08A9A2DF0FB030BD00007FB504469F
:100950000D4601208DF800008DF8084001950348F0
:1009600001684268684690477FBD0000843F0020D0
:1009700010B54FF492710648FFF7A9FC4FF484714B
:100980000348FFF7A4FC00210148FFF7B7FC10BDA6
:10099000002000402DE9F05F04464FF0000B207866
:1009A000002871D103216068FEF7C4FF814600BFB3
:1009B000CA46BAF1000F04D000BF5046FCF7BEFA99
:1009C00000BF00BF4448007808B9BDE8F09F6068E8
:1009D000B0F90000404241490968084440490968AB
:1009E00048434049096849423C4A1268114490FB17
:1009F000F1F086B26068B0F90200404237490968F8
:100A00000844374909684843364909684942334A26
:100A10001268114490FBF1F087B26068B0F90400ED
:100A200040422E49096808442D49096848432D4928
:100A300009684942294A1268114490FBF1F01FFAF3
:100A400080F808F0FF02F9B2F0B2FEF757FB054656
:100A5000DDB125480078C0B10020234908701E4947
:100A600008700120214908700020214908602149AF
:100A700008600B20FFF760FB0C20FFF755FB0021FF
:100A80001D4800F013FAA0E723E00DBB0120164932
:100A900008701A4800681A490968884200D994E722
:100AA0001649096801EB4101134A56541349096874
:100AB00001EB410111444F701049096801EB4101FC
:100AC000114481F802800D480068401C0B49086001
:100AD00000BF00BF79E70000AD200020902000207B
:100AE000942000208C200020AC200020A420002096
:100AF000A02000209C200020CC2100208820002065
:100B0000A820002030B587B03E480068069000203D
:100B10008DF818003B49091D03C9CDE904010220E5
:100B20008DF8120001208DF8130036490C3103C9ED
:100B3000CDE9020102208DF80A0001208DF80B009A
:100B40003049143103C9CDE9000102208DF80200BB
:100B500001208DF803002C4906A8FEF75DFF04462E
:100B600000BF254625B100BF2846FCF7E7F900BFC6
:100B700000BF04A90020FEF723FF044600BF25465E
:100B800025B100BF2846FCF7D9F900BF00BF02A974
:100B90000120FEF715FF044600BF254625B100BF22
:100BA0002846FCF7CBF900BF00BF69460220FEF7DC
:100BB00007FF044600BF254625B100BF2846FCF7C5
:100BC000BDF900BF00BF03211048FEF7B3FE044685
:100BD00000BF254625B100BF2846FCF7AFF900BF8E
:100BE00000BF03210948801DFEF7A4FE044600BF94
:100BF000254625B100BF2846FCF7A0F900BF00BF7D
:100C000007B030BDE41C020095090200C02100209D
:100C100070B507480078FEF761FE044600BF254620
:100C200025B100BF2846FCF789F900BF00BF70BDA1
:100C3000872000202DE9F843FEF770FE044600BF30
:100C4000A046B8F1000F04D000BF4046FCF776F98B
:100C500000BF00BF2E4A00212E48FEF76DFF04465C
:100C600000BFA046B8F1000F04D000BF4046FCF71B
:100C700065F900BF00BF4FF4FA71264B1A68D2F82D
:100C80001035D8B200BF02460B0123FA02F500BFAF
:100C900000BF002001232A46014600901D48FEF7B0
:100CA00029FF1C48FEF714FF00201A4B1A684FF466
:100CB000A07303EB800100BF561800BF00BF00BF48
:100CC00004201549471800BF00BF1448FEF7AAFDCD
:100CD000044600BFA046B8F1000F04D000BF404654
:100CE000FCF72CF900BF00BF3A4631460B480078AC
:100CF000FEF7CEFD044600BFA046B8F1000F04D0B9
:100D000000BF4046FCF71AF900BF00BFBDE8F883FA
:100D1000ED110200CC1C0200007000408720002072
:100D200008B50146044800900098884201D0002090
:100D300008BD0020FCE700008020002010B501461F
:100D40000846202808DA012282402C4B1A400AB1BA
:100D500001220EE000220CE0402809DAA0F1200276
:100D6000012303FA02F20AB1012202E0002200E0AC
:100D7000012212B942F2010010BD0A46002A06DA29
:100D80001F4B02F00F04241F1B5D5B0902E01D4B8B
:100D90009B5C5B091846082801D3002209E028B1B2
:100DA000012803D0042801D0052801D1002200E049
:100DB000012212B942F20200DEE71348806868B1EE
:100DC0004809114A52F8200001F01F0301229A40FD
:100DD00010434A090C4B43F822000CE000BF01F01D
:100DE0001F02012090404A09920002F1E022C2F85D
:100DF000000100BF00BF0020BEE70000FC06FFBCF2
:100E000018ED00E000E400E02C41002070B504463D
:100E1000FBF79DFE054614488068D8B901201249A9
:100E2000886012480068124908400F49086010485D
:100E30004FF0E021C1F880010C488038D0F88400E0
:100E4000094948604FF0FF310848001D016000204B
:100E5000207001E0012020701DB900BF62B600BF04
:100E600000BF002070BD00002C41002080E100E0A8
:100E7000FC06FFBC30B504461088C01C984201D95E
:100E80000C2030BD0220158848551088401C108069
:100E90001120158848551088401C108010880C546B
:100EA0001088401C10800020EBE700002DE9F8437B
:100EB00080460F462448007820B33C461CE0234877
:100EC0000068401EA04203DC00201F49087018E0A3
:100ED000002506E004EB44004044405D0DF80500A9
:100EE0006D1C032DF6DB01208DF8030004226946FA
:100EF0001748FCF7CCFE641C164800783844A04222
:100F0000DDDC00BF10480078D8B900201249086025
:100F1000124908604046FDF78DFC002603E0F0B260
:100F20000DF80600761C032EF9DB02208DF8030075
:100F3000042269460648FCF7AAFE0020084908601A
:100F400000BFBDE8F8830000A4200020A8200020F6
:100F5000A421002098200020A02000209C20002018
:100F6000882000202DE9F04707460E4614469A4691
:100F7000B86A10B90720BDE8F0874FF0000836E0E6
:100F800008EB4801B86A00EB8105A88800F1020966
:100F9000B9F1FE0F01D90C20EDE709F1010021881C
:100FA00070542088401C208016202188705420888E
:100FB000401C208022889119288800F055FD218846
:100FC00008442080A88800280DDDA86808B90720FB
:100FD000D1E7AA8823889819A968FBF769FA2088BD
:100FE000A9880844208008F1010000F0FF0897F864
:100FF0002C004045C4DC0020BDE7000038B50020CF
:1010000000900848009069460748FCF7D5FD044663
:1010100000BF254625B100BF2846FBF78FFF00BF64
:1010200000BF38BD65030200A421002070B5002078
:10103000FDF700F8044600BF254625B100BF28464D
:10104000FBF77CFF00BF00BFFCF7FEFE044600BFBD
:10105000254625B100BF2846FBF770FF00BF00BF43
:101060003CDF044600BF254625B100BF2846FBF7FC
:1010700065FF00BF00BF70BD014600BF09B90E206B
:10108000704700BF014801600020F9E79821002067
:101090007CB50446044800900098019001A92046C0
:1010A00060DF054628467CBD8020002070B50546DF
:1010B0000E46144614212046FBF713FA0120208027
:1010C000002121610020207326726572607A08B1C8
:1010D0000121A172002070BD70B504460D46164670
:1010E000324629462046FBF707FF70BD2DE9F04147
:1010F00080460C4616461F4614B90720BDE8F0810D
:10110000204600F0030109B9012100E0002109B9DE
:101110000720F3E70948046009480680094807608A
:101120000949404610DF05460DB12846E6E7012093
:10113000064908701620FFF701FEDFE79021002026
:101140009421002088210020D91002008C21002049
:101150000146C87808B1072070470020FCE77CB53D
:10116000044601A90020FCF7EBFE054600BF0DB1C7
:1011700028467CBD00BF69460120FCF7E1FE05461C
:1011800000BF0DB12846F4E700BF9DF8000010B184
:101190000220207007E09DF8040010B10B202070A1
:1011A00001E0002020700020E3E70246501A20F002
:1011B0007F40704770B504460B48006878B10A4A12
:1011C000D4E9050112689047054600BF2E4626B1B6
:1011D00000BF3046FBF7B2FE00BF00BF02E0D4E91B
:1011E0000510884770BD0000802100207047000076
:1011F0002DE9FC41002001900F4804680F48076862
:101200006846FDF7BDFC0546FEF716F806462DB10B
:1012100001AA21460098FDF7DBFD01260198FEF7A3
:1012200057F800B1012616B13846FDF717FB00202C
:1012300003490870BDE8FC81702100206C2100206A
:101240008521002010B51420FBF76AFA10BD0000BC
:1012500010B51849096811B91649086028E0154AFF
:1012600001681268126891420DD81249096809682C
:101270000268891A0F4A126811600E490968C16133
:101280000C49086014E002680A4C2368216803E0F6
:101290000C68121B0B46C96911B10C689442F7D354
:1012A00011B10C68A41A0C600260C161D86100BF62
:1012B00010BD00006C21002030B50246154C21689D
:1012C000084604E0904200D103E00146C0690028CE
:1012D000F8D100BF00B930BD814210D10D4C246857
:1012E000E4690C4D2C602C46246844B901240A4D55
:1012F000AC600024094D2C600124094D2C7003685A
:10130000C469CC61C86910B104681C44046000BFA2
:10131000E1E700006C210020001001407021002056
:10132000852100202DE9F84305460E4617469846CC
:10133000DDF820901149096801EBC500694600F00D
:101340000DFC044614B90420BDE8F8830120207088
:101350006660FFF7DBF9A060E760C4F81080C4F8AE
:1013600014900649096801EBC5009DF8001000F0D3
:101370000DFCFFF767FF0020E6E700006821002072
:10138000F8B504460E460D49096801EBC4006946EC
:1013900000F0E4FB05460DB90420F8BD02202870DA
:1013A0006E600649096801EBC4009DF8001000F06A
:1013B000EDFBFFF747FF0020EFE70000682100206A
:1013C0002DE9F0411F480068002838D00027FFF7BA
:1013D0009DF980461C4801684046FFF7E6FE064638
:1013E0001848056810E02868B04200D90EE0286867
:1013F000361A286807442C46ED69207C20B100206D
:1014000020742046FFF7D6FE002DECD100BF0F4818
:1014100000780F490978884209D10D480078401CAE
:10142000C0B20B490870022801D100200870094899
:101430000749097840F82170FFF704FF00BFBDE8B5
:10144000F08100006C210020702100207C21002010
:101450007D2100207421002010B51120FBF760F9D8
:1014600010BD70B504461D4610881230A84201D93F
:101470000C2070BD1120168888551088401C1080E3
:101480001020168888551088401C10800F2307E014
:10149000E05C16888855581E43B21088401C1080A6
:1014A000002BF5DA0020E4E710B54FF48E710948FF
:1014B000FEF70DFF084880680749898A445C0648A2
:1014C000808A401C0449888220460449086000BF85
:1014D00010BD000000200040843F00201C2500407B
:1014E00030B58FB004460D461C2108A8FAF7F9FF65
:1014F0009DF8200020F0080008308DF820009DF8AD
:10150000200020F00400001D8DF82000002009902C
:101510000B900C900D900E9020788DF80A00022010
:10152000ADF808000020019000BF9DF8040020F0F5
:101530000F00401C8DF804009DF8040020F0F0001E
:1015400010308DF8040000BF00BF9DF8050020F0AA
:101550000F00401C8DF805009DF8050020F0F000FC
:1015600010308DF8050000BF9DF8060020F0060041
:10157000801C8DF806009DF8060020F008008DF80C
:1015800006009DF8060020F010008DF806009DF87A
:10159000060020F00100401C8DF80600142103A86D
:1015A000FAF79FFF02A8039001A804900120ADF86C
:1015B00014000020ADF816001420ADF81800608863
:1015C000231D03AA08A9A2DF0FB030BD1FB5044632
:1015D00000208DF800008DF80840064880680190D2
:1015E00000200449887508460168426868469047AB
:1015F0001FBD0000843F002030B504461088C01C89
:10160000984201D90C2030BD022015884855108819
:10161000401C10800A20158848551088401C1080F6
:1016200015884C551088401C10800020EBE7000006
:1016300070B50546287820B1012834D0022838D169
:101640002BE01D491D4A12788818FBF777FD1B48CF
:101650000078401C1949087008460078401E164959
:10166000085C0A2803D015480078142814DB1348B6
:10167000027811491248FCF70AFB0446082C08D0EE
:1016800000BF264626B100BF3046FBF757FC00BF1F
:1016900000BF0020094908700CE000BF6868FBF734
:1016A0004DFC00BF06E000BF6868FBF747FC00BFC9
:1016B00000E000BF00BF70BD84390020B4200020CE
:1016C000A42100207CB504460E462078012827D1AD
:1016D000606801782648FBF760FC054645B10120AB
:1016E0008DF80000019568462249096888470BE09B
:1016F0001F48FDF7A5FB012806D100208DF800004A
:1017000068461C49096888471948FDF799FB18493C
:101710008988884203D801211748FEF7D7FA25E0C7
:10172000207802280CD18DF80000E068019001219A
:101730001148FEF7CBFA68460E490968884715E05C
:10174000207898B90D490E48FBF706FC18B901211D
:101750000A48FEF7D7FB0A48FDF772FB30B90320B1
:101760008DF8000068460349096888477CBD000081
:101770000C3F0020142100201921002018210020F6
:101780001C3F002030B587B0104A07CA04AB07C31E
:1017900000BF0F4800904FF4807001900D480290F8
:1017A0004FF48070039006230B4A694604A8FBF7A8
:1017B000E1FC044600BF00BF254625B100BF284616
:1017C000FBF7BCFB00BF00BF07B030BDD81C020058
:1017D00098390020983A0020311602007FB54FF466
:1017E00000715448FEF781FD68B34FF4927151487F
:1017F000FEF766FD38B34FF492714E48FEF767FD71
:101800004FF401714B48FEF76AFD4B48807E18B9D2
:1018100004214848FEF772FD02208DF8000045487B
:10182000FEF748FD03904448C17D8DF80810C0685C
:10183000019000204049C875087608460168426852
:10184000684690473CE004213A48FEF74EFD0028E8
:1018500036D04FF484713748FEF732FD00282FD080
:10186000FEF7B0FF3448C07D3349497E884227D116
:101870003148007E80B13048C468457E007E2E49E4
:10188000C87508460069C860002008764876214679
:101890002846FFF75BF813E02748807E18B904213B
:1018A0002448FEF72BFD4FF401712248FEF717FD87
:1018B00000202149C8750A46D168507EFFF746F8D6
:1018C0004FF48E711B48FEF7FBFCA0B11A48808ACA
:1018D0001949897D884202DAFFF7E6FD0BE04FF4F3
:1018E0008E711448FEF7F3FC1348807D18B112493D
:1018F000887DFFF76BFE4FF4A2710E48FEF7E0FC07
:10190000B0B14FF4A2710B48FEF7E1FC0A48807EAB
:1019100018B100210748FEF7F1FC0748C07D38B137
:1019200000200549C8750A46D168507EFFF70EF8B9
:101930007FBD000000200040843F00207FB54FF4B1
:1019400092714648FEF7E8FCF0B14FF492714348BB
:10195000FEF7E9FC02208DF800004048FEF7D6FCB7
:1019600003903E48FEF7EEFCC1B28DF808103C48EB
:10197000C068019000203A49C87508760846016899
:1019800042686846904737E04FF488713348FEF765
:10199000C3FC002830D04FF488713048FEF7C3FCF8
:1019A0002E48FEF7CFFCC4B22D48C07DA04222D104
:1019B0002B48007EB8B12A48C5682020294909680B
:1019C0008143264AC2F8001200BF2548007E244900
:1019D000C87508460069C860002008762946204678
:1019E000FEF7B4FF07E000201D49C8750846C1682E
:1019F0002046FEF7ABFF00BF4FF4A2711748FEF779
:101A00008BFC98B14FF4A2711448FEF78CFC14487B
:101A1000C07D58B100201249C8751048FEF792FCED
:101A2000C4B20F48C1682046FEF790FF4FF4907192
:101A30000A48FEF771FC78B14FF490710748FEF741
:101A400072FC0748807D38B1044840F24C51095877
:101A5000CCB22046FFF7BAFD7FBD00000020004059
:101A6000843F00200022004002460A70100A48709D
:101A70000220704738B505461E4800884FF6FF71B2
:101A8000884235D01C480078401C1B4908701B4810
:101A9000007B097888420DDB19491648008875DFFC
:101AA000044634B11548806918B11448816920464C
:101AB00088471DE00020104908701048007C68B17C
:101AC0003B210C48008876DF044634B10B4880691E
:101AD00018B10A4881692046884700BF0748406915
:101AE00030B100200090054841696846884700BF32
:101AF00038BD00000621002004210020D03E002037
:101B0000FC20002030B500BF00BFEFF30581C1F31A
:101B1000080282B1A2F1100359B2002906DA0D4C75
:101B200001F00F052D1F645D640902E00A4C645C3E
:101B30006409E1B200E00F21022902D0062904D194
:101B400001E0002003E0012001E0022000BF00BF0F
:101B500030BD000018ED00E000E400E030B50246C2
:101B60000B465078401CC1B29078884200D10021C9
:101B70001078884201D1002030BD1970557805EBEE
:101B80004505506800EBC5042046F5E741707047F5
:101B90002DE9FC478046894615469A46DDE90A67E5
:101BA0005346022249464046CDE9006700F017F847
:101BB000044600BF14B12046BDE8FC8700BF534671
:101BC000102229464046CDE9006700F008F8044697
:101BD00000BF0CB12046EFE700BF0020ECE72DE985
:101BE000FF5F06468B4696461D460E9C4FF000084A
:101BF0002088039000274AE0706800EB87000068A7
:101C00000190002202A901A865DF824600BFBAF157
:101C1000000F03D0504604B0BDE8F09F00BF9DF810
:101C20000800704532D1B8F1000F01D0002000E06B
:101C30000220009020889DF808100144009801447B
:101C40000F98814201DD0C20E5E7B8F1000F0AD1C1
:101C50002088401C2080208805F800B02088401C87
:101C600020804FF001082088421902A901A865DFF1
:101C7000824600BFBAF1000F01D05046CBE700BF4B
:101C800020889DF808100844208000BF7F1C308801
:101C9000B842B1DCB8F1000F0DD021880398401C88
:101CA000081A1FFA80F9B9F1FF0F01DD0C20B2E725
:101CB000039805F800900020ADE70146087908B9BF
:101CC000087B08B1012070470020FCE700A001401C
:101CD00000060000010000070806050701000000DB
:101CE00000E0D70101000600000000000200010032
:101CF00000000000020002000000000002000300DB
:101D0000603D0020803D0020AC3D00200D00000023
:101D10000E0000000F000000100000000D00030086
:101D200065DE01000E00030065DE01000F00030008
:101D300065DE01001000030065DE0100EC3E0020BE
:101D40009ECADC240EE5A9E093F3A3B50000406E23
:101D50000600000008000000070000000500000069
:101D600000000000000000000000D6010600000096
:101D70000600000008000000070000000500000049
:101D800000000000000000000000D6010600000076
:101D9000010006000900000600000000B440002019
:101DA00003000000C41D0200802000202401000068
